:020000022000DC
:10200000000004202D0003005500030057000300CA
:10201000590003005B0003005D00030000000000A6
:102020000000000000000000000000005F0003004E
:10203000610003000000000063000300650003006E
:10204000097A02006700030075860200670003003A
:102050006700030067000300497E02006700030079
:1020600067000300670003006700030067000300C8
:1020700067000300670003006700030067000300B8
:102080006700030065340200670003006700030077
:102090000535020067000300A90403006700030080
:1020A0006700030067000300670003006700030088
:1020B000670003006700030000000000000000004C
:1020C0006700030067000300670003006700030068
:1020D0006700030067000300670003006700030058
:1020E00067000300670003006700030000000000B2
:1020F000000000006700030000000000670003000C
:1021000000000000000000000000000000000000CF
:1021100000000000000000000000000000000000BF
:1021200000000000000000000000000000000000AF
:10213000000000000000000000000000000000009F
:10214000000000000000000000000000000000008F
:10215000000000000000000000000000000000007F
:10216000000000000000000000000000000000006F
:10217000000000000000000000000000000000005F
:10218000000000000000000000000000000000004F
:10219000000000000000000000000000000000003F
:1021A000000000000000000000000000000000002F
:1021B000000000000000000000000000000000001F
:1021C000000000000000000000000000000000000F
:1021D00000000000000000000000000000000000FF
:1021E00000000000000000000000000000000000EF
:1021F00000000000000000000000000000000000DF
:1022000010B5054C237833B9044B13B10448AFF330
:1022100000800123237010BD4C220020000000002C
:10222000581B0300084B10B51BB108480849AFF311
:1022300000800848036803B910BD074B002BFBD092
:10224000BDE81040184700BF00000000581B030005
:1022500050220020BC21002000000000154B002B64
:1022600008BF134B9D46A3F5803A00218B460F46CD
:102270001348144A121A0EF0C4FA0F4B002B00D068
:1022800098470E4B002B00D09847002000210400F7
:102290000D000D48002802D00C48AFF300800EF06E
:1022A0006FFA2000290007F0E7F90EF055FA00BF99
:1022B00000000800000004200000000000000000F2
:1022C0004C2200201C330020000000000000000011
:1022D000F0B595B0002415460F4608461E4605F099
:1022E000B3F83846234605A9082208951A9D099691
:1022F0000D950A948DF82C400C9405F003F99DF887
:102300001430079806998DF8104003F00302012A53
:102310000290ADF80C102CD0022A04D0384605F0FB
:10232000A3F815B0F0BDBDF81650C3F3C202C3F355
:102330008003C5F389158DF80E208DF80F3008261F
:10234000082D2C4628BF08243346224638460EA9BD
:1023500005F0D8F82D1B21460EA802AA08AB26448A
:1023600000F0EEFD002DEBD1384605F07DF815B0FC
:10237000F0BDBDF81460059DC6F38316C3F3C20E0D
:10238000B2000EA9C3F3800438460823C5F395258F
:102390008DF80EE08DF80F4005F0B4F808AB00930F
:1023A000284632460EA902AB00F032FDB6E700BF68
:1023B000014B01221A70704768220020704700BF4D
:1023C00030B5114D114889B005F0FCFF0FCD6C46BA
:1023D0000FC495E80F00062584E80F004FF0FF3387
:1023E0004FF0EB740948009569460022019302936F
:1023F0000393069405F0AEFE08B100F0EFFF044B26
:1024000000221A7009B030BDDC0D03002821002025
:102410006922002000B583B0044B0093044A402396
:10242000FFF756FF03B05DF804FB00BF3524020040
:102430006C22002010B5094C09480023D2B2237049
:1024400006F05EF830B9074B1B7813B12378002BE8
:10245000FCD010BD00F0C2FFF5E700BF68220020ED
:10246000282100206922002030B5104D0FCD89B001
:102470006C460FC495E80F00062584E80F004FF066
:10248000FF334FF0EB740A480A4A009569460193FE
:1024900002930393069405F05DFE08B100F09EFFE1
:1024A000054B01221A7009B030BD00BFDC0D0300DE
:1024B00028210020B12302006922002010B5054C1C
:1024C000FFF7D2FF2046042100F062FC0123637273
:1024D00010BD00BF3021002008B5104B104800226D
:1024E000FF21C3F8182499601A605A60C3F81424B5
:1024F00083F81C2404F060FF70B90A4B0A4A9A1A48
:10250000D20807D0094903460B520133934200F128
:102510000C00F9D1002008BD08BD00BFAC2200208E
:102520000C0E0300B01B0300601B0300D42100202D
:10253000B9B130B41149124D491BC9080ED0114B25
:102540005A88824218BF002205D114E0DC898442F7
:1025500003F10C030AD001328A42F7D1002030BCCB
:102560007047074A02EBC0000068704705EBC200E5
:10257000006830BC70472846FAE700BFB01B030074
:10258000601B0300D4210020064B032903EBC0008D
:1025900005D0042901D140797047002070470079A7
:1025A000704700BF601B03002DE9F04F554C89B008
:1025B00094F81C74A368009317B109B0BDE8F08FBC
:1025C000029008A8039100F80D7D01F04BFC94E8FF
:1025D0000C00A06801921146C2180132521A032A57
:1025E00059D800F10108C1EB080804F5836E04F224
:1025F0001446012503EA0002023204EB820101F1D4
:1026000004095EE800CF4CEA050A4EE800AB9BF0F7
:10261000000FF6D156E800CF4CEA050A46E800ABB9
:102620009BF0000FF6D1097989079C4613D1B9F8C0
:102630000020B9F80210C2F3891202EB91120132A4
:1026400094440CEA0002023204EB820101F1040915
:1026500009798907EBD004EB82020CF1020C526875
:10266000059202F00302022A43D0BDF81420C2F3FF
:102670008312624456E8001F01EA070C46E800C9CD
:1026800099F0000FF6D111B11E4B5A60134608EBBA
:102690000302032AAED9019D9DF813002B46023395
:1026A000236001F007FC009F029E05EA0703023346
:1026B00004EB830301211A7961F30102C6F30011CF
:1026C00061F3820266F3C5021A71998828466FF396
:1026D0008911024699800132596803983A4004EB07
:1026E000820460F39F21320C5960E26009B0BDE8BA
:1026F000F08FBDF81620C2F3891203320CEBA20250
:10270000B8E700BFAC2200202DE9F04F584C8BB049
:1027100094F81C74A368019317B10BB0BDE8F08F57
:1027200002900AA8059200F80D7D049101F09AFB31
:1027300094E80C00A06803921146C2180132521AA4
:10274000042A59D800F10108C1EB080804F5836E8A
:1027500004F21446012503EA0002023204EB82016E
:1027600001F104095EE800CF4CEA050A4EE800AB2F
:102770009BF0000FF6D156E800CF4CEA050A46E878
:1027800000AB9BF0000FF6D1097989079C4613D165
:10279000B9F80020B9F80210C2F3891202EB9112C5
:1027A000013294440CEA0002023204EB820101F18E
:1027B000040909798907EBD004EB82020CF1020CC1
:1027C0005268079202F00302022A49D0BDF81C2089
:1027D000C2F38312624456E8001F01EA070C46E880
:1027E00000C999F0000FF6D111B1214B5A60134680
:1027F00008EB0302042AAED9039D9DF81B002B466B
:102800000333236001F056FB019E029F05EA060395
:10281000023304EB830301211A79C7F3001061F33B
:10282000010260F3820267F3C5021A719A8861F3AC
:1028300089129A805868029F2A466918049D0232BC
:1028400065F39F2058603240314004EB8101059BC5
:1028500004EB82043A0CCA60E3600BB0BDE8F08F71
:10286000BDF81E20C2F3891203320CEBA202B2E7BC
:10287000AC2200202DE9F04F5C4C8BB094F81C7416
:10288000A568009517B10BB0BDE8F08F02900AA8BB
:10289000059300F80D7D0492039101F0E3FA94E8AA
:1028A0000C00A06801921146C2180132521A052A82
:1028B00059D800F10108C1EB080804F5836E04F251
:1028C0001446012503EA0002023204EB820101F101
:1028D00004095EE800CF4CEA050A4EE800AB9BF025
:1028E000000FF6D156E800CF4CEA050A46E800ABE7
:1028F0009BF0000FF6D1097989079C4613D1B9F8EE
:102900000020B9F80210C2F3891202EB91120132D1
:1029100094440CEA0002023204EB820101F1040942
:1029200009798907EBD004EB82020CF1020C5268A2
:10293000079202F00302022A50D0BDF81C20C2F315
:102940008312624456E8001F01EA070C46E800C9FA
:1029500099F0000FF6D111B1244B5A60134608EBE1
:102960000302052AAED9019D9DF81B002B460433B6
:10297000236001F09FFA009E029F05EA06030233DE
:1029800004EB830301211A7961F30102C7F30011FB
:1029900061F3820267F3C5021A719A880221284600
:1029A00061F389129A800246451C41180332586827
:1029B000324035403140039E66F39F20586004EB5F
:1029C000850504EB8101049B04EB82043A0CEA6068
:1029D000CB60059BE3600BB0BDE8F08FBDF81E2017
:1029E000C2F3891203320CEBA202ABE7AC22002047
:1029F0002DE9F04F604C8BB094F81C74A5680095DD
:102A000017B10BB0BDE8F08F01900AA8059300F84C
:102A10000D7D0492039101F025FA94E80C00A06862
:102A200002921146C2180132521A062A59D800F1F0
:102A30000108C1EB080804F5836E04F21446012571
:102A400003EA0002023204EB820101F104095EE8AC
:102A500000CF4CEA050A4EE800AB9BF0000FF6D120
:102A600056E800CF4CEA050A46E800AB9BF0000FA1
:102A7000F6D1097989079C4613D1B9F80020B9F835
:102A80000210C2F3891202EB9112013294440CEA53
:102A90000002023204EB820101F10409097989077D
:102AA000EBD004EB82020CF1020C5268079202F0A8
:102AB0000302022A57D0BDF81C20C2F383126244DD
:102AC00056E8001F01EA070C46E800C999F0000F1C
:102AD000F6D111B1284B5A60134608EB0302062ABF
:102AE000AED9029D9DF81B002B460533236001F0F3
:102AF000E1F9009F05EA0703023304EB830328464C
:102B00001A79019D012161F30102C5F3001161F3FE
:102B1000820265F3C5021A719A88032161F3891252
:102B20009A800246461C5118023004325D683A40D1
:102B30003E4038403940039F04EB860604EB80009A
:102B400004EB810167F39F2504EB8204019A5D6029
:102B5000049B120CF260C360059BCB60149BE36086
:102B60000BB0BDE8F08FBDF81E20C2F3891203320E
:102B70000CEBA202A4E700BFAC2200202DE9F04F2D
:102B8000804D6A682B689A4285B000F0B480AC68CA
:102B900004EA0203023305EB83010020C5F81404A4
:102BA0000879860701F1040110D10B884988C3F325
:102BB000891303EB911301331A4402EA040302332D
:102BC00005EB8300011D00798007EED005EB830340
:102BD000511C58680190214005EB810300F003006F
:102BE000DB680293022802F10206DFF898815BD0CD
:102BF000BDF804306448C3F38312062A28BF0622B6
:102C0000911C62F389138900ADF8043004F0D6FBFF
:102C1000074600285DD004F017FC0023384601A9C0
:102C2000082204F047FCBDF8043013F4707F00F074
:102C3000A6804FF000094FF0080806EA040105EBF2
:102C4000810143460C313846042204F033FCBDF8C0
:102C5000043009F10109C3F3831306F1010A4B455E
:102C600008F104085646E8D8484B002253E8001FF4
:102C700001EA020043E8000494F0000FF6D1D5F811
:102C8000104454B149B9637A204639464BB323689E
:102C90001B6898476468002CF5D1384604F0E4FBC3
:102CA000C5F804A0524615E0BDF806303648C3F317
:102CB000891ABAF1500FD146A8BF4FF0500969F3F5
:102CC0008F1309F10801ADF8063004F077FB0746D1
:102CD000A8B96A682B68981A18BF012005B0BDE82A
:102CE000F08F6468002CCED1384604F0BDFBC5F8E7
:102CF00004A05246EEE7002005B0BDE8F08F24EABC
:102D0000060B0BF1010B04F09FFB4FEA8B0B3846CF
:102D100001A90822002304F0CDFBD94524D9BBF139
:102D2000000F19D006EA040108EB8101CBEB09047E
:102D30000C3138465A460823E4B204F0BBFB38464F
:102D4000224608F10C010BF1080304F0B3FB0AF171
:102D5000030A06EB9A0A87E708F10C014A4638464F
:102D6000082304F0A7FBF2E706EA040108EB81015F
:102D70000C314A463846082304F09CFBE7E7B2468C
:102D800072E700BFAC2200200C0E0300C02600201A
:102D900030B4144DD5F81044002154B1237A8B423D
:102DA00014D0234602E01A7A8A420FD05B68002BC7
:102DB000F9D10172D5F810340A4A73B15B684360E7
:102DC000D2F810345860084630BC704701310A29E7
:102DD000E3D14FF0FF3030BC7047C2F810044360BD
:102DE000F1E700BFAC22002038B5084BD3F81044FF
:102DF000012583F81C543CB12368657220465B684A
:102E000098476468002CF7D138BD00BFAC22002081
:102E10002DE9F04784B01D460C9C002394F80C80EB
:102E20002373EB7981460E4617460BB3062F0FD856
:102E3000DFE807F0363B414804515E00B168F068B6
:102E400096E80C00009101904946204603F0ECFB07
:102E5000EB792BB92B7AEBB92046334903F0E4FB2D
:102E6000204603F0D5FB84F80C8004B0BDE8F08761
:102E70002B7A002B4BD1AA792C4BA88853F822A08F
:102E80000021FFF755FB524603462949204603F02F
:102E9000CBFBCBE720462749274A03F0C5FBDBE7FE
:102EA0004946204603F0C0FBD2E749463268204637
:102EB00003F0BAFBCCE74946204696E80C0003F045
:102EC000B3FBC5E7B16896E80C002046009149467F
:102ED00003F0AAFBBCE7B1683069F76896E80C001C
:102EE0000091029049460197204603F09DFBAFE711
:102EF00096E80C00B168F06837697669039600912E
:102F0000019049460297204603F08EFBA0E7A9797D
:102F1000A888FFF739FB094B064953F820202046C3
:102F200003F082FBA7E700BF700E0300200E030032
:102F30005C0E0300580E0300680E0300340E0300FD
:102F4000082951D82DE9F0471D46002395F80C902B
:102F50002B73D379904607460E46002B45D00024AC
:102F600005E03A5D013403F05FFB082C0AD0A6426D
:102F700028463049F5D828462F49013403F054FB40
:102F8000082CF4D128462D49DFF8D4A003F04CFBDF
:102F900000240DE03A5DDAF80030134401345B7828
:102FA00013F0970F08BF2E2203F03EFB082C0AD027
:102FB000A64228462249EDD828462249013403F08A
:102FC00033FB082CF4D198F8073013B998F808307F
:102FD000F3B928461C4903F027FB284603F018FBE9
:102FE00085F80C90BDE8F0877047137AB3B998F86C
:102FF0000620164BB8F8040053F822400021FFF7D2
:1030000097FA224603461249284603F00DFBA6E72D
:1030100028461049104A03F007FBDAE791799088B7
:10302000FFF7B2FA0D4B0B4953F82020284603F066
:10303000FBFADCE7740E03007C0E0300800E030035
:10304000840E0300640E0300700E0300200E0300C4
:103050005C0E0300580E0300680E0300340E0300DC
:1030600050210020084B1B5C1F2B8ABF074A4FF0E2
:10307000A04203F01F03D2F80405D84000F001007D
:1030800080F00100704700BFEC0E03000003005009
:10309000074B1B5C1F2B86BF03F01F0305494FF036
:1030A000A041012202FA03F3C1F80C35704700BFBA
:1030B000EC0E030000030050064B1A5C1F2A86BF6B
:1030C00002F01F0204494FF0A04101239340C1F8D0
:1030D00008357047EC0E0300000300504FF0A0438A
:1030E00010B44FF480404FF400544FF400414FF4BB
:1030F0008032C3F80845C3F80805C3F80815C3F8BB
:1031000008255DF8044B70474FF0A04310B44FF40E
:1031100080404FF400544FF400414FF48032C3F824
:103120000C45C3F80C05C3F80C15C3F80C255DF865
:10313000044B70470A4B195C1F298ABF09484FF09E
:10314000A04001F01F01D0F8043501228A4022EA94
:1031500003011340C0F80815C0F80C35704700BFD4
:10316000EC0E03000003005030B44FF0A0430322E4
:103170004FF400554FF480444FF400404FF4803139
:10318000C3F83427C3F83827C3F83C27C3F84027CF
:10319000C3F80855C3F80845C3F80805C3F808156F
:1031A00030BC7047084B1B5C1F2B8ABF074A4FF08F
:1031B000A04203F01F03D2F81005D84000F0010030
:1031C00080F00100704700BFE80E030000030050CC
:1031D0000B2809D00C2809D0182809D0192814BFA9
:1031E0004FF0FF30032070470020704701207047E8
:1031F00002207047014B185C704700BFE80E0300C7
:103200002DE9F84F234B1A788AB3DFF88CB0DFF83A
:103210008C80DFF88C9000244FF0010A03E0013429
:10322000E4B2944223D226B2D8F80050DBF8003042
:1032300015F836000AFA00F1194205EBC607EED080
:10324000154A23EA0103136004F0EEFD15F8365029
:10325000D9F800300AFA05F10B4000FA05F18B426B
:1032600007D00C4B01341A78E4B29442DBD3BDE8AA
:10327000F88F79787B68A1F10101B1FA81F14909F0
:10328000002BEED0091A2846B1FA81F14909984776
:10329000E7E700BFA4270020CC270020A0270020BC
:1032A000C827002070B50646114800F069FD40B9F6
:1032B000104D01242B68B4401C4203D023EA0404BF
:1032C0002C6070BD304604F0AFFD0B4E326860B12B
:1032D00022432B68094932601C432C60044809686A
:1032E0000022BDE8704000F0F1BC22EA0402F0E7E1
:1032F000A8270020CC270020C82700209C270020DA
:10330000F0B5042A85B0174602D8072005B0F0BDF5
:103310000191054604F028FC0199002830D01C4C8E
:10332000DFF888E01B481C4A1C4B256000264C1E19
:1033300007608EF8001016601E60E4B2032709B91A
:1033400018E01C4623B205EBC30215F8330093784E
:10335000134A8DF80D3003A98DF80C708DF80E60AE
:103360008DF80F6004F00AFC631E0028CED1DBB29A
:10337000002CE6D10B4A0C48002100F095FCC5E773
:10338000019104F0ABFB01990028C8D0BEE700BF53
:10339000A02700209C270020C8270020CC27002041
:1033A000A532020001320200F00E0300A427002023
:1033B00070B5084D2B785BB1074E002433680121AE
:1033C00013F8340004F0B4FC2B780134A342F5D890
:1033D000002070BDA4270020A027002000B585B0E4
:1033E00000230390194644F2010001AAADF804300D
:1033F000029300F003F805B05DF804FB10B5134C20
:1034000013492088000440F00100FFF7CDF8FFF7D2
:10341000EBFCFFF7B3FB0028FBD10E4B1B68DB076F
:1034200000D5FFDE20880C49000440F00300FFF7C0
:10343000BBF8BFF34F8F0949094BCA6802F4E06239
:103440001343CB60BFF34F8F00BFFDE7D4210020B3
:10345000F40E0300F0ED00E0FC0E030000ED00E0D0
:103460000400FA05F8B5204A204B0025C2F8405167
:10347000C2F84451C2F84851C2F84C51C2F8005148
:10348000C2F804511B6813B31949D2F804250C681B
:10349000141B1A6824F07F44A2422F4609D8197CD5
:1034A000DE69A41A154499B91EB133461A68A242BE
:1034B000F5D9104B10491A780B789A420DD00F4964
:1034C0000F4A41F823504FF48013C2F80031F8BD81
:1034D0001F745A6998699047E6E7531CDBB2022BC8
:1034E00008BF00230B70EAE700100140D42700203A
:1034F000D0270020D8270020D9270020E828002046
:1035000000E100E02DE9F04F7D4A7E49137809780B
:103510007D48994287B0066800F0E8810133DBB24C
:10352000022B08BF002379491370794A029108469B
:1035300052F82310036874488A19002522F07F424C
:103540000260AE462846A3B11A688A4200F2D681CC
:10355000DC68C3F800E0891A1044DA6934B18719CD
:1035600027F07F47DD619C605F601D461346002B9E
:10357000EAD1029A04931360049C01230593654BDE
:10358000DFF894811B7801935F4BDFF890C1D3F88B
:1035900000A0029B1F680023BB462F460093C14634
:1035A0001E464FF0010E37B37A68B9683D46FF6991
:1035B000CAEB020323F07F4363453CD80B442B60E6
:1035C0006E60AE6085F810E0EE61002C67D0216877
:1035D0008B4242D9204603E01168994244D21046FA
:1035E000C2695B1A002AF7D12B60EA612346C561E4
:1035F0001C46002FD8D198F8003098F801209A4244
:1036000000F08E805A1C03EB430308EBC30399F8C8
:1036100002109D68D2B2914289F800201A7908BF41
:1036200089F80070022A48D0032A3CD0012A22D00F
:1036300023461C46DDE7C2EB0A0222F07F428A42A3
:1036400002D28B1A2B60BBE72E606E60AE6085F8ED
:1036500010E0EE611CB321680023CB1A23602B46D7
:10366000EC61AB461C46C4E7C91A11602B60EA61E5
:103670002346C561BCE72A7C0392002AD8D1DA68C8
:103680006A601969A9605869E86010339B68AB618A
:10369000019B002B8CD0039B6B601A4688E72B465E
:1036A000AB461C46A5E70CB9C2E71C46E369267485
:1036B000002BFAD19B461C469BE754B1A54200F073
:1036C0000881234602E0954207D01346DA69002AB2
:1036D000F9D123462E741C468BE7AB4200F0FA80EA
:1036E000E9692868D9610029F3D023460A680244B1
:1036F0000A60009A2E749C4218BF01220092EAE7E9
:10370000D8270020D9270020D0270020D427002048
:10371000E8280020DA270020DC270020FEFF7F00B9
:10372000029B9DF80420C3F800B0764BC3F800A0BC
:10373000754B1A70009B1BB9049BA34200F0D0810B
:10374000002C00F03C81714D6E4BD5F804051B68D0
:103750006F4ED4F800C03178C21A22F07F42033293
:10376000002952D16B4FDFF8B091DFF8B0814FF4F0
:1037700080314FF4003E0124C5F84413C5F804130A
:10378000C7F880E1C7F800E02C602F21D9F800507D
:1037900000BF00BF00BF00BF00BF00BF00BF00BF31
:1037A00045452FD000BF00BF00BF00BF00BF00BF16
:1037B00000BF00BF00BF00BF00BF00BF00BF00BF11
:1037C00000BF00BF00BF00BF00BF00BF00BF00BF01
:1037D00000BF00BF00BF00BF00BF00BF00BF00BFF1
:1037E00000BF00BF00BF00BF00BF00BF00BF00BFE1
:1037F00000BF00BF00BF00BF00BF00BF00BF00BFD1
:1038000000BF00BF0139C3D1347062452CBF9A1884
:1038100003EB0C023D4922F07F43C1F84035D1F85B
:103820000425121A1B1A22F07F4223F07F43033231
:103830009A4248D9D1F80435374AC1F84035126860
:1038400036492F2300BF00BF00BF00BF00BF00BF2D
:1038500000BF00BF8A422FD000BF00BF00BF00BF23
:1038600000BF00BF00BF00BF00BF00BF00BF00BF60
:1038700000BF00BF00BF00BF00BF00BF00BF00BF50
:1038800000BF00BF00BF00BF00BF00BF00BF00BF40
:1038900000BF00BF00BF00BF00BF00BF00BF00BF30
:1038A00000BF00BF00BF00BF00BF00BF00BF00BF20
:1038B00000BF00BF00BF00BF013BC3D1154B4FF499
:1038C0000032C3F80021104A0023137007B0BDE88E
:1038D000F08F2246D4F81CB0BBF1000F22D0D16982
:1038E00010685B4600297FF401AF02E70C4B02939E
:1038F0001B680493002505951C4640E6521A1A6081
:1039000037E600BFD0270020DA2700200010014052
:10391000F028002000E100E04C2100200024F40009
:10392000D42700207549764BC1F808E075492F204F
:10393000096800BF00BF00BF00BF00BF00BF00BFDD
:1039400000BF99422FD000BF00BF00BF00BF00BF23
:1039500000BF00BF00BF00BF00BF00BF00BF00BF6F
:1039600000BF00BF00BF00BF00BF00BF00BF00BF5F
:1039700000BF00BF00BF00BF00BF00BF00BF00BF4F
:1039800000BF00BF00BF00BF00BF00BF00BF00BF3F
:1039900000BF00BF00BF00BF00BF00BF00BF00BF2F
:1039A00000BF00BF00BF0138C3D1D1691068002932
:1039B00000F09B800122DA465B46019296E64F4A70
:1039C000514B504E4E484FF480314FF40037012593
:1039D000C3F88070C2F848132F23C2F8081355604B
:1039E00031681E4600BF00BF00BF00BF00BF00BF60
:1039F00000BF00BF81422FD000BF00BF00BF00BF8B
:103A000000BF00BF00BF00BF00BF00BF00BF00BFBE
:103A100000BF00BF00BF00BF00BF00BF00BF00BFAE
:103A200000BF00BF00BF00BF00BF00BF00BF00BF9E
:103A300000BF00BF00BF00BF00BF00BF00BF00BF8E
:103A400000BF00BF00BF00BF00BF00BF00BF00BF7E
:103A500000BF00BF00BF00BF013EC3D195602B4A2D
:103A6000146000BF00BF00BF00BF00BF00BF00BFA9
:103A700000BF81422FD000BF00BF00BF00BF00BF0A
:103A800000BF00BF00BF00BF00BF00BF00BF00BF3E
:103A900000BF00BF00BF00BF00BF00BF00BF00BF2E
:103AA00000BF00BF00BF00BF00BF00BF00BF00BF1E
:103AB00000BF00BF00BF00BF00BF00BF00BF00BF0E
:103AC00000BF00BF00BF00BF00BF00BF00BF00BFFE
:103AD00000BF00BF00BF013BC3D10D4B1C70F2E61D
:103AE000059B002B3FF4EFAE2AE601231A46019313
:103AF0008A468B460B4600922E74ECE5001001407E
:103B00000024F4004C21002000E100E0D027002038
:103B1000F02800202DE9F041594B5A4A5A4D5B4E8E
:103B20004FF480344FF400310120C2F88010C3F804
:103B300048432F21C3F8084358602D680C4600BF46
:103B400000BF00BF00BF00BF00BF00BF00BFB54245
:103B50002FD000BF00BF00BF00BF00BF00BF00BF2D
:103B600000BF00BF00BF00BF00BF00BF00BF00BF5D
:103B700000BF00BF00BF00BF00BF00BF00BF00BF4D
:103B800000BF00BF00BF00BF00BF00BF00BF00BF3D
:103B900000BF00BF00BF00BF00BF00BF00BF00BF2D
:103BA00000BF00BF00BF00BF00BF00BF00BF00BF1D
:103BB00000BF013CC3D1364C98600020206000BF9C
:103BC00000BF00BF00BF00BF00BF00BF00BFB542C5
:103BD0002FD000BF00BF00BF00BF00BF00BF00BFAD
:103BE00000BF00BF00BF00BF00BF00BF00BF00BFDD
:103BF00000BF00BF00BF00BF00BF00BF00BF00BFCD
:103C000000BF00BF00BF00BF00BF00BF00BF00BFBC
:103C100000BF00BF00BF00BF00BF00BF00BF00BFAC
:103C200000BF00BF00BF00BF00BF00BF00BF00BF9C
:103C300000BF0139C3D1174D1749DFF86080DFF8A5
:103C400060C0DFF860E028704FF48016E0250B2795
:103C5000C8F800008CF800008EF80000087048706A
:103C60008F70C2F8806182F814531660C3F808059B
:103C700082F81153D3F804352360BDE8F08100BF0A
:103C80000010014000E100E04C2100200024F4007D
:103C9000D0270020F0280020DC270020D427002097
:103CA000D8270020D9270020074B9B780BB9082084
:103CB00070473AB130B10368187C0028F7D15974C5
:103CC0005A61704707207047DC2700202DE9F04338
:103CD000284CA37883B01BB9082003B0BDE8F0835B
:103CE0000028F9D0042903D8072003B0BDE8F083E9
:103CF0004369002BF0D0064602A8737C0025012BF7
:103D000000F8015D0CBF8946A94690460F4600F0B9
:103D1000A9F86378A07821785A1CD2B2904208BFE3
:103D20002A4691421FD003EB430304EBC303194619
:103D30004FF0010E41F8086F0F4883F804E0D0F807
:103D400004654E608F609DF80700C3F81490C3F8B7
:103D50001880627000F0AEF8084B4FF480122846CD
:103D6000C3F80021B9E79DF8070000F0A3F804208C
:103D7000B3E700BFDC2700200010014000E100E0B5
:103D800070B51B4CA37882B013B9082002B070BD87
:103D90000028FAD04369002BF7D0064602A8002578
:103DA00000F8015D357400F05DF86278A078217844
:103DB000531CDBB2984208BF2B46994212D002EB4B
:103DC000420204EBC20202219DF8070096601171C5
:103DD000637000F06FF8074B4FF480122846C3F869
:103DE0000021D3E79DF8070000F064F80420CDE738
:103DF000DC27002000E100E030B5184CA37883B048
:103E000013B9082003B030BD02A8002500F8015DF9
:103E100000F028F86278A0782178531CDBB2984231
:103E200008BF2B46994213D002EB420204EBC202B8
:103E300003219DF8070095601171637000F03AF856
:103E4000074B4FF480122846C3F8002103B030BD61
:103E50009DF8070000F02EF80420D3E7DC270020AF
:103E600000E100E0F0B4EFF3108472B60E4B9A68F4
:103E7000B2B90E4901259D60D1F880700C4D2E46D7
:103E80003D401D60C1F88060D1F884505D604FF006
:103E9000FF33C1F88430027004B962B6F0BC7047D9
:103EA00001230370F8E700BF1033002000E100E0B9
:103EB000FC06FFBD094B9A6872B168B910B4EFF304
:103EC000108272B606491C680C605C684C60986091
:103ED00002B962B65DF8044B704700BF1033002092
:103EE00000E100E0033080B240F2FD33984201D996
:103EF0000920704730B4124B1C783CB95D891A898F
:103F00002A44024492B2B2F5806F10D31A7C0C4C52
:103F100012B1072030BC7047658B228B2A440244C3
:103F200092B2B2F5806FF4D20124224600E022461C
:103F300003EB02130C805A89104458810020E9E7F2
:103F400010290020F0B543684BB1304AD468A34231
:103F500005D31269934202D813F0030234D0002330
:103F6000DFF8B0E00B804FF0010C4FF6FF75DEF884
:103F70000470002307F58054C3B15A88033203EB61
:103F80008203A34216D21A68013213D09A881E887F
:103F9000AA42F2D0002EF0D09E6802689642EBD181
:103FA0001B4A4360138903810120F0BD07F1080318
:103FB000A342E8D3BCF1020FA1F800C00EF1100E2D
:103FC00021D04FF0020CD2E7114C05892489A5427B
:103FD000C5D105689C68A542C1D10E4C606883427A
:103FE00005D900F58050834201D2134608E062698A
:103FF000934208D902F58052934238BF012302D27E
:104000000B800120F0BD0020F0BD00BFC0210020CA
:104010003029002010290020F0B52D4CDFF8BCE03D
:104020006368678883B0002B4BD03F015A880EEB42
:1040300007010332496803EB820201F58055AA4269
:1040400026D21368013318BF4FF6FF7620D093882D
:104050001088B34213D090B1626053881D4D1E4842
:10406000AE882968033300259BB200959B0001EBC5
:1040700086010325257002F0F3FD03B0F0BD5388DF
:10408000033302EB8302AA4202D213680133DED16A
:104090007744BB896BB10F4D0F482968022705266D
:1040A00001220023AF80267003B0BDE8F04002F08B
:1040B0000FBE0122084802F00BFE0423237003B058
:1040C000F0BD3F010EEB0703596801F10802B4E7A8
:1040D00030290020B8290020C0210020102900200C
:1040E000B3F804C0BCF1010F55D82DE9F047DFF853
:1040F000B08091464FF6FF774FF0000A4FEA0C145C
:1041000008EB040E18F80440002C34D11C68002C75
:104110003CD06588DEF80460033504EB850406F5C1
:104120008056B44225D22568013522D0A588228840
:10413000BD4218D0BAB11C6018B1A6880588AE423D
:10414000E5D119B126880D88AE42E0D1A268C9F840
:1041500000201A68114BC9F804201B89A9F80830FF
:104160000020BDE8F0876588033504EB8504B44280
:10417000D9D3C3F800A00CF10104A4B2022C9C8096
:104180004FF0010CBAD10A20BDE8F087DEF80460D8
:1041900006F10804C3E70A20704700BF3029002059
:1041A000102900202DE9F04FB44D2C6FE7003B1B88
:1041B00089B015F823305A1E8046052A00F2A782DE
:1041C000DFE802F06242421E1E03002840F0E28057
:1041D000DFF8C09299F80C30002B00F00C8399F8AE
:1041E000003089F80C00013B062B00F28F82DFE8DB
:1041F00013F0A8026102840161018D024F023E02A8
:10420000002840F0C8803E1B05EB8606DFF86CA254
:1042100096F80490B9F1010F00F04183C0F02983B2
:10422000B9F1020F41F61D5618BF0F2641F61D5277
:10423000964208BF0026013B0496052B37D8DFE8DD
:1042400003F093977C6B5D333A1B05EB820202F11E
:1042500010018B4EB1F8049006EB0919002840F0CC
:10426000A4808A79B9F80880D9F8041001EB88088D
:10427000062A00F21F83DFE812F05601E901C601A9
:10428000AD01990182017F01002840F086803E1B2C
:1042900005EB86063379032B00F29983DFE813F0F0
:1042A000FE00DA00CB009A0005238DF80C30754C27
:1042B00004F1100654F8043B03A803B19847B44234
:1042C000F8D1286F6D4CC0EBC00005EB80000021D9
:1042D0001C220CF096FA6B6F43B1226F0132013B46
:1042E00002F0030263672267002B6DD1664A1378E0
:1042F00023F00403137009B0BDE8F08F3C1B05EBFD
:1043000084040422E388ADF8183000238DF80C20D3
:10431000ADF81A300593CAE73C1B05EB840423462D
:10432000E18833F8082FADF818105B680593032374
:10433000ADF81A208DF80C30B9E73C1B05EB84046E
:104340000222A37D2689A088E168ADF81860A3F158
:104350000603B3FA83F35B098DF81C30ADF81A003D
:1043600005918DF80C20A2E700238DF80C309EE714
:104370003C1B05EB840401222389A088E168ADF889
:1043800018300023ADF81A0005918DF80C208DF837
:104390001C308CE70623012648E73B490A780123B5
:1043A00022F001020A701E4640E7D088B9F80A20C0
:1043B000B9F80810C61C121A3144033AA9F80810BB
:1043C000A9F80A20012631E70020FFF7EBFE09B02B
:1043D000BDE8F08FDFF8C0802C4AD8F800102C48D8
:1043E0004FF000090823CDF8009002F039FC294B6A
:1043F00023495B88D8F800C0B8F804E086F8049038
:104400001B01CA1801F803905368C8F80030022352
:10441000C2F804C0A2F808E0A8F8043000283FF46D
:104420006AAF3B1B15F8233017490A7822F00102C6
:104430000A700E26FAE6DFF860801548D8F80010FA
:104440000122002302F044FC02220023A8F80420E9
:104450003371E3E70A4E3378022B00F08C82337C11
:10446000022B00F09B82084A137843F0020323F0EA
:104470000103137041F61D560123D7E640290020A1
:1044800010290020C4290020C0290020180F030093
:10449000C021002030290020B8290020BC4BBD4895
:1044A0001968BD4A00230093082302F0D9FB0123B9
:1044B0003371B3E7B94BB9F80220DFF8F48203EBAC
:1044C00002129389002B00F00F82B14EB14831687F
:1044D0004FF0020C4FF0050E01220023A6F804C095
:1044E00088F800E002F0F4FB0646002E3FF403AF2C
:1044F0001C2303FB04F3EB5C98E6A548D9F80420E1
:104500008188D0F800E05388A24800260333009643
:104510009BB2032689F800609B000EEB810102F03C
:104520009FFB0646E1E73E1BB600AB190020414663
:104530004FF0020E1A1D009083F816E09548DFF840
:104540007482042302F08CFB00283FF4D4AE18F8E8
:1045500006300E26391B05EB8101B9F80A20C88800
:10456000B9F8081000F1030E121A7144033AA9F8C1
:104570000810A9F80A2059E641F61D56EAE7884BCB
:10458000884AB3F8008051688248874A0023009324
:10459000042302F065FB002800F0C3813B1B9B0055
:1045A000EA180621EB5C91750E26D3E73E1BB60098
:1045B000AA197C4B92691A607949DFF8F8A10022A8
:1045C00018465A60FFF7BEFC0028ACD11AF8063036
:1045D0000A262BE63E1BB60005EB060E0021BEF8B0
:1045E0000630DEF810206B4800914FF0010C08F106
:1045F0000C019B008EF816C0DFF8B88102F030FB8A
:104600000028A4D177E63E1BB60005EB060E7246E5
:10461000DEF810305F48DFF89CA1002B18BF4FF088
:10462000030C4FF0000308BF4FF0010C009308F19A
:1046300008010C3204238EF816C002F011FB00288A
:104640003FF459AE1AF806300E2683E73E1BB6003B
:10465000032B05EB06034FF0000008F1040114BF23
:104660004FF0060E4FF0050E03F1080263E7484BCA
:1046700048481968484A00264FF0070E009608235C
:10468000C9F8046089F800E002F0EAFA06462CE76F
:10469000B9F80230414E1B011E440023716800939B
:1046A000062389F800303B48404A082302F0D8FA34
:1046B00006461AE7D9F80430B9F802E0002B00F0FA
:1046C0004981364E5A884FEA0E1E06EB0E01033220
:1046D000496803EB820201F58050904275D9136856
:1046E000013318BF4FF6FF7C6FD09388B2F800807B
:1046F000634561D0B8F1000F5ED0254EC9F80420A3
:1047000053882448B188D6F800E0FEE606230F2639
:104710008CE5224BB9F808101A781B7CB2FA82F2A9
:10472000B3FA83F352095B0901310026012089F8AD
:104730000A2089F80B30A9F8081089F80C6089F86C
:10474000000099F80A301A4A43B114498B890020B5
:1047500090721BB98A7B002A40F0248199F80B30B3
:10476000134A43B10D4B998B0020D07219B99B7F2E
:10477000002B40F016813B1B002215F8233089F8EE
:104780000020A9F80220C9F8042041F61D564DE585
:10479000B8290020C0210020100F0300102900209C
:1047A000FA28002004290020200F0300180F03001E
:1047B00030290020402900205388033302EB830274
:1047C000904202D9136801338FD17644B389002B0C
:1047D00000F0B1807F4E804831684FF0020C4FF0FE
:1047E000050E01220023A6F804C089F800E002F0BB
:1047F0006FFA064679E699F80030072B3FF6F3ACDE
:1048000001A252F823F000BF13470200E741020063
:10481000E741020057480200314802006F4602009B
:104820006F46020029480200012389F8003088E71A
:10483000B9F80230694E674A1B01F1181068D1F8C7
:1048400004C0B2F804E048600220C2F800C0A1F839
:1048500008E0908020E75F48D9F8043081885A88C2
:10486000B9F802E0114403310222818089F8002066
:1048700027E708A8F36840F8143D0DF10A01CDF8C8
:104880001080CDF81480FFF75DFB002836D10A2692
:104890003B1B9B00EA180221EB5C1171CBE4504BEF
:1048A0001B789B0708D4014608224E480BF0A9FF4D
:1048B00002261DE60F264DE6DFF828B1B01D5B4647
:1048C000414603AAFFF70CFC0646002870D1049964
:1048D000CDF800804048444ABBF80460042302F04D
:1048E000BFF988B30E2603E651683B48012202F067
:1048F000EFF90423064688F80030F6E504993648B7
:104900008B88F380B1F800E0374ACDF800800423AB
:10491000A6F808E0BDF80A8002F0A2F918B30E2646
:10492000B6E73C1B05EB840506EB081606220123BF
:10493000AA75B373DFE42848012202F0C9F9042301
:10494000064689F80030D0E5244B03EB061383F8C4
:104950000E90D0E4214E4FEA0E1E06EB0E0359686E
:1049600001F10802B7E61D4B03EB081301210222F7
:1049700099733271BFE44FF000084FEA081806EB54
:1049800008034FF0000959681348CDF80090174A02
:10499000082302F065F906F808903FE54FF001089A
:1049A000EBE70123A9F80230FFF736FB06469CE54A
:1049B0005846414608220BF024FF1C2303FB04F356
:1049C0000A2E08BF41F61D561AF803302EE40123C3
:1049D0002AE500BFB8290020C021002010290020AE
:1049E000C0290020FC280020200F0300180F03001E
:1049F0002DE9F04FBA4C23785A078BB002D50BB093
:104A0000BDE8F08FB74D2E6FF700BA1B43F00400DE
:104A100015F822202070511E052900F2BE82DFE821
:104A200001F05C3E3E1C1C03DFF8C89299F80C3084
:104A3000002B00F02F83002389F80C3099F8003008
:104A4000013B062B00F2A882DFE813F0C2027202DB
:104A500081015C01A6025F024C02C6EB070A05EB6E
:104A60008A0ADFF880929AF80480B8F1010F00F00A
:104A70005283C0F0B780B8F1020F41F61D5318BF42
:104A80000F2341F61D518B4208BF0023013A0693C4
:104A9000052A34D8DFE802F0909479685A30BB1BBD
:104AA00005EB8303DFF85882B3F814904FEA091935
:104AB00008EB09011033B1F808A09B79496801EBB4
:104AC0008A0A062B00F23283DFE813F05A01B001A4
:104AD0008C01F001DA01C3018901C6EB070805EB7F
:104AE000880898F80420032A00F2B283DFE812F065
:104AF000D500E200C500940005238DF814307A4EED
:104B000006F1100756F8043B05A803B19847BE42CA
:104B1000F8D1286F734EC0EBC00005EB8000002178
:104B20001C220BF06EFE6B6F4BB1326F0132013BFA
:104B300002F0030273673267002B40F0A7822378EC
:104B400023F0040323700BB0BDE8F08FBE1B05EB10
:104B500086060422F388ADF8203000238DF8142057
:104B6000ADF822300793CAE7BE1B05EB8606334635
:104B7000F18833F8082FADF820105B680793032302
:104B8000ADF822208DF81430B9E7BE1B05EB860680
:104B90000222B37D3789B088F168ADF82070A3F1A7
:104BA0000603B3FA83F35B098DF82430ADF82200D5
:104BB00007918DF81420A2E700238DF814309EE7AA
:104BC000BE1B05EB860601223389B088F168ADF87B
:104BD00020300023ADF8220007918DF814208DF8C5
:104BE00024308CE70AA8DAF80C3040F8143D4FF076
:104BF00000080DF11201CDF81880CDF81C80FFF7E8
:104C0000A1F9002840F0C0820A23BA1B9200A9181B
:104C10000220AA5C087139E7DFF8DC90334AD9F842
:104C2000001033484FF0000A0823CDF800A002F02E
:104C300017F8304BDFF8C8C05B88D9F80010B9F816
:104C400004E088F804A01B010CEB03020CF803A09D
:104C50005368C9F8003002235160A2F808E0A9F8AF
:104C6000043000283FF4CBAEBB1B207815F823207E
:104C700020F0010020700E2303E7DFF87C901C4831
:104C8000D9F800100122002302F022F802220023AA
:104C9000A9F8042088F80430E3E7174B1448196892
:104CA000164A00230093082301F0DAFF012388F855
:104CB0000430D6E7DFF8488098F80020022A00F098
:104CC000AC8298F81020022A00F0948243F0060388
:104CD00023F001032370012241F61D53D1E600BFEA
:104CE000C029002040290020C4290020180F0300FB
:104CF000C021002030290020B8290020100F030017
:104D000010290020C64BB9F80220DFF8388303EBE6
:104D100002129389002B00F02282DFF80CE3C148D5
:104D2000DEF800104FF0050C00234FF002090122BD
:104D3000AEF8049088F800C001F0CAFF0346002BCB
:104D40003FF45DAE1C2202FB06F2AA5C99E6D9F89C
:104D50000420B54853888188D0F800E0B148033377
:104D60009BB24FF0000C9B000EEB81014FF0030E45
:104D7000CDF800C089F800E001F072FF0346DEE7DD
:104D8000C6EB070B4FEA8B0B05EB0B0300205146DC
:104D90004FF0020E1A1D009083F816E0A148DFF8CC
:104DA0008CA2042301F05CFF00283FF428AE1AF81F
:104DB0000B200E23B81BC84405EB8000B8F80A107E
:104DC000B0F806E0B8F808000EF1030CCEEB0101D4
:104DD00060440339A8F80800A8F80A1051E641F623
:104DE0001D53E7E7C6EB070B4FEA8B0B05EB0B0EEA
:104DF0007246DEF810308B48002B18BF4FF0030CC2
:104E00004FF0000308BF4FF0010C00930AF10801B6
:104E10000C3204238EF816C001F022FF00283FF464
:104E2000EEAD824B13F80B200E23C3E7C6EB070B46
:104E30004FEA8B0B032A05EB0B034FF000000AF13E
:104E4000040114BF4FF0060E4FF0050E03F10802E7
:104E5000A1E7774B774AB3F800A051687148764ACA
:104E600000230093042301F0FBFE002800F0818161
:104E7000BB1B9B00E9180620EA5C88750E2399E7A6
:104E8000BB1B4FEA830B05EB0B016A4A8869106074
:104E90000023674953601046FFF754F800287FF459
:104EA0006FAF624B13F80B200A23EAE5C6EB070B42
:104EB0004FEA8B0B05EB0B0E0021BEF80630DEF837
:104EC0001020584800914FF0010C0AF10C019B0092
:104ED0008EF816C0DFF854A101F0C2FE00287FF45E
:104EE00066AF8CE5504B4F481968544A4FF0000E9E
:104EF0004FF0070CCDF800E00823C9F804E089F86A
:104F000000C001F0ADFE034619E7B9F80230DFF842
:104F100010811B0143440022596842480092062335
:104F200089F80030464A082301F09AFE034606E756
:104F3000D9F80430B9F802E0002B00F04881DFF81E
:104F4000E0805A884FEA0E1E08EB0E0103324968D2
:104F500003EB820201F5805082427ED21368013356
:104F600018BF4FF6FF7C78D09388B2F800A0634555
:104F70006AD0BAF1000F67D0C9F804202A495388D3
:104F8000B1F804E00968274803339BB24FF0000CE6
:104F90009B0001EB8E01E9E606220F2371E5204B11
:104FA000B9F808101A781B7CB2FA82F2B3FA83F3CC
:104FB00052095B0901314FF0000E012089F80A20E7
:104FC00089F80B30A9F8081089F80CE089F800007E
:104FD00099F80A301B4A43B111498B89002090721D
:104FE0001BB98A7B002A40F01C8199F80B30154AC6
:104FF00043B10B4B998B0020D07219B99B7F002BCA
:1050000040F00E81BA1B002389F80030A9F8023065
:10501000C9F8043015F8222041F61D5331E500BFD0
:1050200010290020C0210020B8290020402900209C
:10503000FA28002004290020200F0300100F03008D
:10504000180F0300302900205388033302EB83023A
:10505000904202D91368013386D1C644BEF80C30A1
:10506000002B00F0A580DFF8F0E17A48DEF80010B0
:105070004FF0050C00234FF002080122AEF8048027
:1050800089F800C001F024FE034658E60020FFF72F
:1050900089F8B4E499F80030072B3FF6D1AC01A2AF
:1050A00052F823F09F4F0200414A0200414A020099
:1050B000F7500200CD500200E54E0200E54E02001E
:1050C000C5500200012389F8003081E7B9F80230A9
:1050D000DFF89081604A1B0108EB03011068D1F8EA
:1050E00004C0B2F804E048600220C2F800C0A1F891
:1050F00008E090800EE7D9F804205748538881884B
:10510000B9F802E0194403314FF0020C13468180D4
:1051100089F800C013E703F0020303F0FF013BB975
:105120004E4808220BF06DFB02230BE60F2341E6ED
:10513000DFF828B10AF106005B46002105AAFEF758
:10514000CFFF002873D1009006994248444ABBF82B
:105150000490042301F084FD98B30E23F2E5516816
:105160003C48012201F0B4FD0422034688F80020E7
:10517000E5E5BE1B05EB860508EB0A1806220123B0
:10518000AA7588F80E303AE4069932488B88AAF856
:105190000630B1F800E0324ACDF800800423AAF8C6
:1051A00008E0BDF8128001F05BFDD0B10E232CE5C4
:1051B0000122284801F08CFD0422034689F80020D2
:1051C000BDE5284B03EB091383F80E8017E4DFF8E5
:1051D00094804FEA0E1E08EB0E03596801F1080295
:1051E000B8E6204B03EB08130121022299738AF8D9
:1051F000042004E44FF001094FEA091908EB090300
:105200004FF0000A59681348CDF800A0164A082349
:1052100001F026FD08F809A023E54FF00009EBE7AF
:105220000123A9F80230FEF7F7FE034687E5039055
:105230000822584600210BF0E4FA039B1C2202FBD3
:1052400006F20A2B08BF41F61D5319F8022018E494
:1052500001220DE5C0210020B8290020FC280020F3
:10526000200F030010290020180F03002DE9F04F34
:10527000B74DD0F804802C6FE7003B1B89B015F8C0
:1052800023305A1E052A00F2AC82DFE802F06544A2
:10529000441F1F03B8F1000F40F0E580DFF8C8920B
:1052A00099F80C30002B00F0108399F8003089F841
:1052B0000C80013B062B00F29382DFE813F0AC0276
:1052C000650288016501910253024202B8F1000FA4
:1052D00040F0CA803E1B05EB8606DFF874A296F804
:1052E0000490B9F1010F00F04483C0F02C83B9F1B0
:1052F000020F41F61D5618BF0F2641F61D52964269
:1053000008BF0026013B0496052B39D8DFE803F0DF
:1053100095997E6D5F353A1B05EB820202F1100113
:105320008C4EB1F8049006EB0919B8F1000F40F06B
:10533000A5808A79B9F80880D9F8041001EB8808AB
:10534000062A00F22183DFE812F05801EB01C801C0
:10535000AF019B0184018101B8F1000F40F086800C
:105360003E1B05EB86063379032B00F29A83DFE8B8
:1053700013F0FF00DA00CB009A0005238DF80C3003
:10538000754C04F1100654F8043B03A803B1984788
:10539000B442F8D1286F6E4CC0EBC00005EB800022
:1053A00000211C220BF02DFA6B6F43B1226F0132EA
:1053B000013B02F0030263672267002B6DD1674A4D
:1053C000137823F00403137009B0BDE8F08F3C1B81
:1053D00005EB84040422E388ADF8183000238DF82F
:1053E0000C20ADF81A300593CAE73C1B05EB84048A
:1053F0002346E18833F8082FADF818105B68059351
:105400000323ADF81A208DF80C30B9E73C1B05EBEF
:1054100084040222A37D2689A088E168ADF8186083
:10542000A3F10603B3FA83F35B098DF81C30ADF8E2
:105430001A0005918DF80C20A2E700238DF80C309E
:105440009EE73C1B05EB840401222389A088E168C8
:10545000ADF818300023ADF81A0005918DF80C2036
:105460008DF81C308CE70623012646E73B490A7875
:10547000012322F001020A701E463EE7D088B9F8E7
:105480000A20B9F80810C61C121A3144033AA9F8C8
:105490000810A9F80A2001262FE70020FEF782FE57
:1054A00009B0BDE8F08FDFF8C4802D4AD8F80010AD
:1054B0002C484FF000090823CDF8009001F0D0FBF4
:1054C000294B24495B88D8F800C0B8F804E086F876
:1054D00004901B01CA1801F803905368C8F8003003
:1054E0000223C2F804C0A2F808E0A8F8043000289B
:1054F0003FF46AAF3B1B15F8233018490A7822F0B5
:1055000001020A700E26F8E6DFF860801548D8F828
:1055100000100122002301F0DBFB02220023A8F887
:1055200004203371E3E70B4E3378022B00F08D82B9
:10553000337C022B00F09C82084A137843F002036C
:1055400023F00103137041F61D560123D5E600BF79
:105550004029002010290020C4290020C029002053
:10556000180F0300C021002030290020B829002096
:10557000BC4BBD481968BD4A00230093082301F0C5
:105580006FFB01233371B2E7B94BB9F80220DFF8A2
:10559000F48203EB02129389002B00F00F82B14ECC
:1055A000B14831684FF0020C4FF0050E0122002384
:1055B000A6F804C088F800E001F08AFB0646002E39
:1055C0003FF402AF1C2303FB04F3EB5C95E6A54814
:1055D000D9F804208188D0F800E05388A24800263A
:1055E000033300969BB2032689F800609B000EEB04
:1055F000810101F035FB0646E1E73E1BB600AB1921
:10560000002041464FF0020E1A1D009083F816E06C
:105610009548DFF87482042301F022FB00283FF450
:10562000D3AE18F806300E26391B05EB8101B9F808
:105630000A20C888B9F8081000F1030E121A714444
:10564000033AA9F80810A9F80A2056E641F61D56B3
:10565000EAE7884B884AB3F8008051688248874A55
:1056600000230093042301F0FBFA002800F0C3811B
:105670003B1B9B00EA180621EB5C91750E26D3E7D5
:105680003E1BB600AA197C4B92691A607949DFF873
:10569000F8A1002218465A60FEF754FC0028ACD14D
:1056A0001AF806300A2628E63E1BB60005EB060E61
:1056B0000021BEF80630DEF810206B4800914FF054
:1056C000010C08F10C019B008EF816C0DFF8B881C0
:1056D00001F0C6FA0028A4D176E63E1BB60005EB21
:1056E000060E7246DEF810305F48DFF89CA1002BF2
:1056F00018BF4FF0030C4FF0000308BF4FF0010C30
:10570000009308F108010C3204238EF816C001F052
:10571000A7FA00283FF458AE1AF806300E2683E7A1
:105720003E1BB600032B05EB06034FF0000008F10B
:10573000040114BF4FF0060E4FF0050E03F10802EE
:1057400063E7484B48481968484A00264FF0070E5F
:1057500000960823C9F8046089F800E001F080FA97
:1057600006462CE7B9F80230414E1B011E440023C7
:1057700071680093062389F800303B48404A0823AB
:1057800001F06EFA06461AE7D9F80430B9F802E0DB
:10579000002B00F04981364E5A884FEA0E1E06EB68
:1057A0000E010332496803EB820201F580509042FA
:1057B00075D91368013318BF4FF6FF7C6FD09388FB
:1057C000B2F80080634561D0B8F1000F5ED0254E7D
:1057D000C9F8042053882448B188D6F800E0FEE6D2
:1057E00006230F2689E5224BB9F808101A781B7C8E
:1057F000B2FA82F2B3FA83F352095B09013100264F
:10580000012089F80A2089F80B30A9F8081089F8D6
:105810000C6089F8000099F80A301A4A43B114491B
:105820008B89002090721BB98A7B002A40F024816A
:1058300099F80B30134A43B10D4B998B0020D0726D
:1058400019B99B7F002B40F016813B1B002215F8F5
:10585000233089F80020A9F80220C9F8042041F675
:105860001D564AE5B8290020C0210020100F030072
:1058700010290020FA28002004290020200F03000E
:10588000180F0300302900204029002053880333DB
:1058900002EB8302904202D9136801338FD1764420
:1058A000B389002B00F0B1807F4E804831684FF003
:1058B000020C4FF0050E01220023A6F804C089F85F
:1058C00000E001F005FA064679E699F80030072B6A
:1058D0003FF6EFAC01A252F823F000BFE7570200F9
:1058E000B3520200B35202002B59020005590200C4
:1058F0004357020043570200FD580200012389F874
:10590000003088E7B9F80230694E674A1B01F11888
:105910001068D1F804C0B2F804E048600220C2F870
:1059200000C0A1F808E0908020E75F48D9F8043073
:1059300081885A88B9F802E011440331022281803B
:1059400089F8002027E708A8F36840F8143D0DF116
:105950000A01CDF81080CDF81480FEF7F3FA002884
:1059600036D10A263B1B9B00EA180221EB5C117121
:10597000C8E4504B1B789B0708D441464E48082288
:105980000AF03FFF02261DE60F264DE6DFF828B19C
:10599000B01D5B46414603AAFEF7A2FB064600285F
:1059A00070D10499CDF800804048444ABBF80460A7
:1059B000042301F055F988B30E2603E651683B48ED
:1059C000012201F085F90423064688F80030F6E547
:1059D000049936488B88F380B1F800E0374ACDF857
:1059E00000800423A6F808E0BDF80A8001F038F929
:1059F00018B30E26B6E73C1B05EB840506EB08162C
:105A000006220123AA75B373DEE42848012201F0BF
:105A10005FF90423064689F80030D0E5244B03EBF8
:105A2000061383F80E90CFE4214E4FEA0E1E06EBCC
:105A30000E03596801F10802B7E61D4B03EB08138A
:105A40000121022299733271BEE44FF000084FEA3F
:105A5000081806EB08034FF0000959681348CDF801
:105A60000090174A082301F0FBF806F808903EE57D
:105A70004FF00108EBE70123A9F80230FEF7CCFA5A
:105A800006469CE55846414608220AF0BAFE1C2309
:105A900003FB04F30A2E08BF41F61D561AF8033023
:105AA0002BE4012329E500BFB8290020C0210020F4
:105AB00010290020C0290020FC280020200F03000E
:105AC000180F0300074A1378042B09D010B4591C8F
:105AD000054C117044F8230000205DF8044B70471A
:105AE0000C207047F8280020C42900202DE9F04F31
:105AF000A04C22788BB0002396070593069307935A
:105B0000089309930DD59C4C04F1100554F8043BFF
:105B100005A803B19847AC42F8D100200BB0BDE80E
:105B2000F08FD507F9D442F001024FF01023227014
:105B30004FF080525B6911695269904D581C08BF43
:105B400001FB02F32B618E49A3F540532846002246
:105B5000EB6001F07DF80028E0D1EA68894B019004
:105B600002F53F5C1F6800900CF13C0C043A86463D
:105B70004FF6FF7551688448814202F1040348D012
:105B800002F5805002E0824200F0088152F8041FC2
:105B90000131F8D04FEA0E137C4903220EF1010EB9
:105BA000CA541FFA8EFE60450246E3D1754A9DF83D
:105BB000003017600B2B09D8DFE803F0686D686DC3
:105BC000086A736A0806700603230293704A516FCD
:105BD00003290ED8136F0B4403F00303C3EBC30375
:105BE0009B00D0180125D55401319DF80830037170
:105BF000516723785F4903F0040202F0FF04002A92
:105C00008BD143F0040320460B70FEF7CBFA2046FD
:105C100084E791685F4881426AD001308142AFD108
:105C2000019900294ED15C4803604FF00208A0F8AA
:105C30000480D168013103F5805603F1080303D1D4
:105C4000CCE01968013116D09988B3F80090A942C8
:105C500006D0B9F1000F03D099688F4238BF0F46C4
:105C600059880331884403EB81031FFA88F89E4268
:105C7000A0F80480E5D8B8F1020F0CBF0423082374
:105C800000991943009102F580508CE70B2045E7FD
:105C9000012302939AE70023029397E702230293DA
:105CA00094E72378344D43F0020323F0010323707B
:105CB00005F1100455F8043B05A803B19847A54227
:105CC000F8D12AE731494FEA0E100E183249096817
:105CD00003912E494FF0020801F800800EF1010EE9
:105CE00003992D4871601FFA8EFEA6F808809BE785
:105CF00026494FEA0E1801EB08094FF0000A01F897
:105D000008A00220C9F80430A9F80800D6680136B6
:105D100003F5805302F10C0111D11BE08E68B742EC
:105D200038BF37464E880336304401EB860180B2D7
:105D30008B42A9F808000DD90E6801360AD08E886A
:105D4000B1F800B0AE4202D0BBF1000FE6D14FF087
:105D5000010AE7E70D4B9844009B88F80EA00EF16E
:105D6000010E43F002031FFA8EFE009302F58050ED
:105D700019E700BFC0290020C4290020C02100204D
:105D80003C0F0300F4280020DEC0ADDE1029002007
:105D900040290020FE011EF1B8290020104A126897
:105DA000AAB110490F4EDFF840804FEA0E1211449D
:105DB000A8F802E04B6002230B81B3540EF10101FD
:105DC0001FFA81FE009B43F001030093EBE60449B8
:105DD00002220B6001238A800193F3E704234FE73B
:105DE000B8290020102900203029002060B159B1C5
:105DF00030B583B00C460DF106010546FEF7A2F85A
:105E000020B90A2003B030BD05207047BDF8062038
:105E1000074B686803EB021301219A890A449A81AF
:105E200020606B6800200C336360A97203B030BD42
:105E300010290020D0B110B582B00DF10601044642
:105E4000FEF780F810B90A2002B010BDBDF8062098
:105E5000094B03EB021308339A884AB1A17A39B18E
:105E60000021013A9A800846A172EDE705207047AB
:105E7000062002B010BD00BF102900201D4B1B786A
:105E80009B0702D402231846704740B1CB1C9BB23B
:105E900040F2FD32934205D9092318467047052385
:105EA0001846704770B4144A167886B95589148913
:105EB0002C441C44A4B2B4F5806F08D2344602EBE3
:105EC00004122B4453810023068041800EE0157C90
:105ED000094C55B9658B248B2C441C44A4B2B4F5F1
:105EE000806F02D201263446E9E70723184670BCCA
:105EF000704700BFC029002010290020144B1B78D8
:105F00009B0702D4022318467047E8B10388022B8E
:105F100002D904231846704710B40E4A448802EB95
:105F200003136FF002015A89091BCA4203F10803E7
:105F30000CD4033A0021121B5A800B460180418089
:105F400018465DF8044B70470523DCE70423F7E7A8
:105F5000C029002010290020354B1B789A0701D456
:105F60000220704741B10A884FF6FF739A4201D070
:105F70004B881BB904207047052070474B689B076E
:105F800001D0032070472DE9F04F0E8983B00C46F5
:105F900005460DF106013046FDF7A4FF00283BD170
:105FA000244B254AD4F804E0516FB4F800C0B4F88B
:105FB00002B01C68BDF8067004F101080329C3F89B
:105FC00000802CD8136F0B4403F00303C3EBC3030F
:105FD0009B0002EB030901314FF0020A02F803A013
:105FE000A9F804B0A9F80660A9F808C0A9F80A0041
:105FF000C9F80C80C9F810E0A9F8147089F81600E7
:10600000516735B10D4B6860C5F800801B89A872D7
:106010002B81FEF7EDFC002003B0BDE8F08F084BAC
:1060200003EB071308205A89033A961B5E81F3E7B6
:10603000C0290020F4280020402900203029002019
:10604000102900202AB1334B1B789B0703D4022070
:106050007047052070470029FBD02DE9F0470B88D9
:106060004FF6FF74A34201D04C8814B90420BDE858
:10607000F087496811F0030502D00320BDE8F087DE
:10608000DFF8A090244FD9F80060D7F874E0B2F898
:106090000080B2F802C00136BEF1030FC9F80060FB
:1060A0002CD83A6F724402F00302C2EBC202920093
:1060B00007EB02090EF1010E4FF0020A07F802A0E9
:1060C000A9F80440A9F806C0A9F80830A9F80A50B0
:1060D000C9F80C60C9F81010A9F8148089F8165096
:1060E000C7F874E028B10D4B456006601B898572C6
:1060F0000381FEF77DFC0020BDE8F087084B03EB31
:10610000081308205A89033ACCEB020CA3F80AC002
:10611000BDE8F087C0290020402900203029002058
:1061200010290020F428002028B1364B1B789A074C
:1061300003D402207047052070470029FBD00A884D
:106140004FF6FF739A4201D04B880BB90420704779
:106150004B689B0701D0032070472DE9F04F0E8953
:1061600085B004460D4630460DF10E01FDF7BAFE2E
:1061700000283BD1244B254AD5F804C0516FB5F80F
:106180000080B5F802901D68BDF80E70D4F800E0EC
:10619000013503291D602CD8136FDFF878A001901A
:1061A0000B4403F00303C3EBC3039B004FF0030B4B
:1061B00002F803B0134401314FF0040B5881A3F8E7
:1061C0000490DE80A3F80880DD60C3F810C09F82D1
:1061D000C3F818E083F816B0516760602560BAF81C
:1061E0000830A0722381FEF703FC019805B0BDE8DA
:1061F000F08F074B03EB071308205A89033A961BCD
:106200005E81F3E7C0290020F42800204029002007
:106210001029002030290020124B1B789B0701D445
:10622000022070474FF6FF73984201D10420704757
:106230000D4A516F032913D870B5136F0B4403F047
:106240000303C3EBC3039B00D41805260125D654D2
:106250000131E08025715167FEF7CAFB002070BD57
:1062600008207047C029002040290020F8B5154AB1
:106270001378990701D40220F8BD134C606F0328EE
:1062800016D8216F114D014401F00301C1EBC1018A
:106290002E780130062704F8217060670EB10121C5
:1062A000297303F0040101F0FF0419B10020F8BDC7
:1062B0000820F8BD43F0040320461370FDF772FF79
:1062C0002046F8BDC02900204029002030290020A8
:1062D0002DE9F047304C2478A40702D40220BDE811
:1062E000F0879446002A3DD0002B3BD0B3F80480C1
:1062F000B8F1010F48D8DFF8A8908A464FF6FF772B
:1063000000224FEA081409EB040E19F80440002C8F
:1063100032D11C68002C3AD06588DEF80460033561
:1063200004EB850406F58056B44224D22568013575
:1063300021D0A5882188BD4217D0B1B11C60A588A5
:106340008542E7D125885545E4D1A268CCF80020E4
:106350001A68124BCCF804201B89ACF808300020D6
:10636000BDE8F0870520BDE8F0876588033504EBBC
:106370008504B442DAD31A6008F10104A4B2022CF5
:106380009C804FF00108BCD10A20BDE8F087DEF800
:10639000046006F10804C5E7C02900203029002068
:1063A00010290020304B1B789B0701D40220704736
:1063B00000293ED0002A3CD02DE9F047B2F804E095
:1063C000BEF1010F48D8DFF8A8C04FF6FF764FF0B6
:1063D00000084FEA0E130CEB03071CF80330002BE8
:1063E00031D1D2F80090BA46B9F1000F37D0B9F8E0
:1063F0000230DAF80450033309EB830305F58055C6
:106400009D421ED91C6801341BD09C881F88B44251
:1064100011D087B113601C8884429946E4D19B68EF
:106420000B601268114B4A601B890B810020BDE88C
:10643000F087052070475C88033403EB84039D429A
:10644000E0D8C2F800800EF1010E1FFA8EF3022B85
:1064500093804FF0010EBCD10A20BDE8F087DAF836
:10646000045005F10803C9E7C029002030290020A5
:10647000102900202F4B1B789B0701D40220704766
:1064800001B3FAB12DE9F047B2F804E0BEF1010F13
:1064900015D8DFF8A8C04FF6FF764FF000084FEA96
:1064A0000E130CEB03071CF803306BB10EF1010E59
:1064B0001FFA8EF3022B93804FF0010EEFD10A20CA
:1064C000BDE8F08705207047D2F80090BA46B9F1D0
:1064D000000F2AD0B9F80230DAF80450033309EB80
:1064E000830305F580559D421CD91C68013419D0E1
:1064F0009C881F88B4420FD077B113609C88844277
:106500009946E4D19B680B6012680B4B4A601B896B
:106510000B810020BDE8F0875C88033403EB840323
:106520009D42E2D8C2F80080C0E7DAF8045005F1D5
:106530000803D6E7C02900203029002010290020B8
:1065400020B119B103680B60002070470520704727
:10655000B8B130B4416882680468521AD2B2531E8E
:106560002160DBB242B101680A685C1E551C0D60F7
:106570001370E3B2FF2BF6D103680020187130BC12
:1065800070470E20704700BF70B582B002AB002587
:1065900003F8015D04461846FDF764FC2368616852
:1065A0001A688A4210D9511E19602168A3680E68C2
:1065B000087912F8015C228AE4689B1BDBB29842DE
:1065C00005FB024538BF0B719DF80700FDF772FC13
:1065D000284602B070BD00BF30B583B002AB0022C8
:1065E00003F8012D054618460C46FDF73BFC2A68CA
:1065F0001368591C1160E9682A8A641AB4FBF2F422
:106600001C709DF80700FDF755FC03B030BD00BFBE
:10661000826802B9704710B5044643692168006971
:1066200098470023A36010BD0EB400B582B0039953
:1066300029B102AA04AB42F8043D00F089F802B087
:106640005DF804EB03B070472DE9F84F1746B942E7
:106650008A4606461D46DDF828B00B9A73D30B46D2
:106660004FF00108B3FBF7F39F4208F10108F9D995
:10667000A84538BFA84612F0010902D1BBF1000FAE
:1066800041D1B168012402E0013D07FB04F4012D72
:10669000FAD8BAFBF4F39F42F7D92C4D02E0B16867
:1066A000BAFBF4F34A1CB2603268E85C5054B0683C
:1066B0007268904204FB13AA02D33046FFF7A8FF8A
:1066C000B4FBF7F4002CEAD1B9F1000F15D0BBF1FF
:1066D000000F12D0C34510D92024B3683268591C6A
:1066E000B160D454B26873689A420BF1FF3B06D292
:1066F000BBF1000F01D0C345EFD8BDE8F88F30469D
:10670000FFF786FFF4E7930718D42024C345B8D9D0
:10671000B16833684A1CB2605C54B16873689942CE
:106720000BF1FF3B05D2BBF1000FABD0C345F0D856
:10673000A8E73046FFF76CFFB168F4E7002D14BFFF
:1067400020243024E2E74FF0010891E72C0F0300EA
:106750002DE9F04F0D4685B0002900F0B2800B788E
:10676000DFF8E8A4064691460135002B00F0A5802D
:10677000252B40F0A28129464FF000080D4611F864
:10678000013B2D2B00F09381302B00F093812B2BBC
:1067900000F085812A2B00F09E81A3F13002092AA6
:1067A00000F2BE816A1C002404EB840403EB440461
:1067B0002A2BA4F13004154600F08E811378A3F142
:1067C0003001092905F10102EED91A462E2A00F0FE
:1067D0009081002701E015F8012F02F0FB03682BE0
:1067E000F9D0253A532A63D8DFE812F02701620076
:1067F0006200620062006200620062006200620089
:106800006200620062006200620062006200620078
:106810006200620062006200620062006200620068
:106820006200620062006200620062006200620058
:106830006200620062006200620062006200620048
:106840006200620062006200620062006200620038
:1068500062004A016200620062006200620062003F
:1068600062006200620062003601CE0062006200D7
:1068700062006200CE00620062006200620062009C
:106880006200A900620062006E00620054006200B3
:1068900062004A01D9F800301A1DC9F800201968B1
:1068A00000943B46CDF8048030460A22FFF7CCFE28
:1068B00001352B78002B7FF457AF337B002B40F052
:1068C0006C8105B0BDE8F08FD9F800301A1DC9F809
:1068D000002018F0010F1F6840F02581002F00F004
:1068E000A581384609F095FF8046444515D9A4B1E5
:1068F0004FF0200B00E084B1B2683368511CB160E6
:1069000003F802B0B26873689A4204F1FF3402D30C
:106910003046FFF77DFE4445EDD8013F17F8013FB3
:10692000002BC5D0B2683168501CB0608B54B2687F
:1069300073689A42F2D33046FFF76AFEEEE7D9F861
:106940000020131DC9F80030B36831681468581C62
:106950003022B060CA54B3687268934280F01881E4
:106960003268581C7821B060D154B26873689A427A
:1069700080F00A81082300220192214600933046CC
:106980001022FFF761FE93E7D9F800301A1DC9F80D
:106990000020D3F800B08BEAEB73A3EBEB73092B69
:1069A0004FF0010108DD8AFB0302DB17C3EBA203F2
:1069B000092B01F10101F6DCB94238BF394634B187
:1069C000BBF1000F02DB18F0040F00D0013C18F0FF
:1069D000020F40F0D58018F0010F18D1002C00F004
:1069E00006818C4213D94FF0200CB2683368501CDA
:1069F000B06003F802C0B26873689A4204F1FF34D1
:106A000080F0F780002C00F0F2808C42EDD8BBF1D2
:106A1000000FC0F20D8118F0040F40F0F48008F070
:106A20000303022B00F0BF808DE8100159463B465E
:106A300030460A22FFF708FE3AE7B3683268581C6E
:106A40002521B060D154B26873689A42FFF430AF28
:106A50003046FFF7DDFD2BE7D9F80020131DC9F8FC
:106A60000030B36831681278581CB060CA54B268FC
:106A700073689A42FFF41CAF3046FFF7C9FD17E771
:106A8000D9F800301A1DC9F80020196800943B4657
:106A9000CDF8048030461022FFF7D6FD08E70D46FA
:106AA00011F8013B2D2B48F004087FF46DAE48F03F
:106AB000010863E648F0020860E6B2683168501CDD
:106AC000B0608B54B26873689A42FFF4F2AE3046FD
:106AD000FFF79EFDEDE60024D9F800301A1DC9F835
:106AE00000206A781B682E2A1C4405F101057FF4FA
:106AF00070AE6A78A2F13003092B05F101054FF061
:106B000000073FF66AAE07EB870702EB470715F869
:106B1000012FA2F13003092BA7F13007F3D95CE66E
:106B20001A46002452E6B846C7EB080B18F8012BAA
:106B30008AB1B1683368481CB0605A54B26873684F
:106B40009A42F1D33046FFF763FDC7EB080B18F804
:106B5000012B002AEDD15C457FF6AAAE2027B36851
:106B60003268591CB160D754B26873689A4204F114
:106B7000FF3402D33046FFF74BFD5C45EFD897E674
:106B8000002F3FF444AF26E73046FFF741FDF1E622
:106B90003046FFF73DFDB368E2E6304605B0BDE89C
:106BA000F04FFFF735BD002F7FF43EAF002C3BD0F8
:106BB0008C427FF639AF4FF0300CB2683368501C0E
:106BC000B06003F802C0B26873689A4204F1FF34FF
:106BD00003D24CB38C42F0D826E73046CDF80CC037
:106BE0000291FFF715FDDDF80CC00299F1E70024D2
:106BF0000DE73046CDF80CC00291FFF709FDDDF836
:106C00000CC00299FEE6B268531CB36033682B20B7
:106C10009854B26873689A42FFF401AF304602910B
:106C2000FFF7F6FC0299FAE60024FDE6B8465CE6BA
:106C3000B268531CB36033682D209854B2687368EF
:106C40009A42CBF1000BFFF4EAAEE7E767666666AF
:106C500020B119B101600B68114618470E2070472A
:106C60002DE9F043DDF81C8050B14AB1D0F800E0C6
:106C7000BEF1000F07D01E4643B90920BDE8F083DE
:106C80000E20BDE8F0830820BDE8F0834768D7F800
:106C90000490B3FBF9F709FB1737002FEDD142EA57
:106CA0000104A40702D01020BDE8F083C468A1420B
:106CB000F9D301F1FF3C04696644A642F3D8CDF84C
:106CC0001C80DEF80C40A446BDE8F043604700BFDE
:106CD00028B1F0B5066876B11AB90920F0BD0E20CA
:106CE00070474768D7F800C00CF1FF3739428E462D
:106CF00003D01020F0BD0820F0BDC768B942F8D31A
:106D000001F1FF3E04690CFB02E5A542F1D83469AC
:106D1000A446BDE8F040604770B528B103681BB1D8
:106D20005B69BDE8704018470B4C0C4B0C4D1B1BAE
:106D3000A5FB03352D090CD005EB850504EB850576
:106D400023682046143413B15B69984718B9AC42E4
:106D5000F6D1002070BD70BDC0210020D4210020DC
:106D6000CDCCCCCC29DF704728DF7047002070479E
:106D7000024B586F003018BF01207047DC290020FB
:106D800008B510461A4609F031FD002008BD00BFC5
:106D900038B50B4D0B4B436000210422284609F007
:106DA00030FD09F07BFB084CE870002120460422EE
:106DB00009F027FD054B002020676067186038BD8B
:106DC000D8290020540F0300DC290020D4290020FA
:106DD000012809D8054B1A780121997012B9587801
:106DE000484070470020704701207047D829002094
:106DF000F0B57B4C23788FB083B17A4D296F022890
:106E0000C1EBC10105EB810136D003282DD0A37859
:106E1000734A5BB109F082FA0FB0F0BD6278002AC4
:106E2000F5D06370A3786E4A002BF3D16D4D6B6F74
:106E3000002BF1D02E6FF700BB1B05EB8303012065
:106E400019791070002956D0814240F0838018696A
:106E5000DB681844FFF788FF002872D0112879D129
:106E60000022012322706370D6E75F4E336801333E
:106E7000082B55D83360CAE75B4A0B7900201060B5
:106E8000002B00F08D80012BC1D10B694A690133C1
:106E900093420B61BBD11C2206A809F0A7FC2B6F03
:106EA0006A6F50490133013A2B676A67042B4FF030
:106EB000000508BF0D672570069B9B68002BA6D0B8
:106EC00014226846002109F09CFC9DF81C30089AA9
:106ED00001950492002B79D0012B07D1099B0B9AC5
:106EE00003921B03022202938DF80020069B684642
:106EF0009B6898478BE799695A691869521AB2F5E5
:106F0000805F03F1080328BF4FF4805292085B684A
:106F1000012A38BF012208441944FFF723FF9BE7E9
:106F20001C22002706A8376009F060FC2B6F6A6FEF
:106F30000133013A042B6A672B674FD027700D2568
:106F4000BAE7E378002B7FF467AF01460220FFF732
:106F50004FFF61E7BB1B9B00EC18EB589B68002BB5
:106F60003FF45AAF142206A8002109F04AFCA26897
:106F700023790A920322079204F10802F3B1012B4C
:106F800007D15368626909921B03022208938DF8A6
:106F90001820BE1B06A855F826309B6898473BE78B
:106FA0008B694869C61AB6F5805F94BF9B1903F5D3
:106FB000805398428B617FF42AAF6CE79368089303
:106FC0006269099201238DF81830E2E7DDE90A01D0
:106FD0000123CDE902018DF8003087E72F67ADE787
:106FE000D8290020DC290020D42900202DE9F04FE9
:106FF000584DD5F874E0BEF1040F87B02AD02C6F3D
:10700000DFF854B17444032C88BF043CC4EBC404BF
:10701000A40005EB040A1E4617460EF1010388463C
:107020008146002150461C226B6709F0EAFB9BF861
:107030000010109B45F804900020CAF808308AF828
:107040000400CAF81080CAF80C70CAF8146029B19C
:107050004FF0000E704607B0BDE8F08F9BF801308E
:10706000002BF5D13B4B5B6F002BF1D0394B394AEC
:107070001C6FE600331B02EB830A01229AF80430EE
:107080008BF80020002B3AD0934213D1DAF810008D
:10709000DAF80C301844FFF767FE0746002F46D099
:1070A000112F07D14FF0000E01238BF800E08BF871
:1070B0000130CFE7331B9B00EF18EB589B68002B88
:1070C000C6D0142201A8002109F09BFBBA683B79C5
:1070D00005920322029207F1080293B3012B07D114
:1070E00053687A6904921B03022203938DF80420EB
:1070F000341B01A855F824309B689847A8E7DAF8B4
:107100001810DAF81430DAF80C70DAF810005B1A9C
:10711000B3F5805F28BF4FF480539A08012A0844D2
:1071200038BF01223944FFF71DFE0746B6E79BF83A
:107130000330002B8CD102203946FFF759FEBE46A2
:1071400088E7936803937A69049201238DF80430E9
:10715000CEE700BFDC290020D8290020F0B50128A7
:1071600087B003D0032801D007B0F0BD374D384CAD
:107170006B6FA0F101000022B0FA80F04009E070CE
:10718000A270002BF0D02E6FF700BB1B05EB830322
:1071900001211A7921707AB18A4222D11869DB68FB
:1071A0001844FFF7E1FD002840D0112819D1002232
:1071B000012322706370D7E799695A691869521AD6
:1071C000B2F5805F03F1080328BF4FF480529208A4
:1071D0005B68012A38BF012208441944FFF7C2FD49
:1071E000E1E7BB1B9B00EC18EB589B68002BBBD066
:1071F000142201A8002109F004FBA268237905925A
:107200000322029204F10802C3B1012B07D1536893
:10721000626904921B03022203938DF80420BE1BB3
:1072200001A855F826309B6898479DE7E378002B26
:107230009AD101460220FFF7DBFD95E7936803939F
:107240006269049201238DF80430E8E7DC2900200C
:10725000D82900202DE9F04F554DAC7889B024B1E4
:107260000824204609B0BDE8F08FDFF848B1DBF80C
:107270007440042CF5D0DBF8707001922744032F82
:1072800088BF043FC7EBC707BF000BEB07080E46DC
:10729000824600211C22013440469946CBF87440B6
:1072A00009F0AFFA2978019BC8F81430360B012297
:1072B0004BF807A0C8F80890C8F80C6088F80420BC
:1072C0003C4B3B4821B10024204609B0BDE8F08F7B
:1072D00041780029F7D1596F0029F4D01E6F027050
:1072E000F700BA1B03EB82031A79002A39D0012A6E
:1072F0000ED11869DB681844FFF736FD0446002CF0
:1073000043D0112C04D1002401232C706B70A8E70A
:10731000BB1B9B000BEB03055BF80330254C9B6804
:10732000002BD0D0142203A8002109F06AFAAA6821
:107330002B790792032204927BB3012B0AD11C23E1
:1073400003FB06430221DA685B6906931303059386
:107350008DF80C10BE1B03A85BF826309B6898477D
:10736000B1E799695A69DC681869531AB3F5805F07
:1073700028BF4FF480539A08012A084438BF0122DD
:107380002144FFF7EFFC0446B9E7EB78002B9AD1D4
:1073900002202146FFF72CFD63E71C2202FB064377
:1073A000012219695B69059106938DF80C20D1E7DC
:1073B000D8290020DC290020FFF7CAB82DE9F041C8
:1073C000B0F81080A8F104084144CF1C0646FFF72E
:1073D000DBF8B7FBF8F7044678B3FFB200250123CA
:1073E000013FA0F8068006600571437128D08046F1
:1073F00009E06379AF4203F101036371C8F800004B
:10740000066080461CD03046FFF7BEF801350028E4
:10741000EFD16679721E234603D0013082421B6889
:10742000FBD81F684EB10025236821460135384638
:107430001C46FFF7D1F8AE42F6D10020BDE8F0813E
:107440002046BDE8F08100BF10B40430012350E8AD
:10745000002F02EB030140E8001494F0000FF6D176
:107460005DF8044B704700BF0146021DF8B50120CE
:1074700052E8004FA4EB000342E8003595F0000FFE
:10748000F6D113F0FF0300D0F8BD4E79701E0A4606
:1074900003D0013398421268FBD81768002EF3D04E
:1074A00000240D6801343846FFF796F8A6422946B5
:1074B000F7D1F8BD2DE9F0410446181DE688B0FB70
:1074C000F6F30F46154606FB130013B1013B246883
:1074D000FCD1321AAA4228BF2A468DB14FF00008CB
:1074E0002044AD1A07EB08010430904409F07EF9FE
:1074F000B5422A46246828BF32460020002DEFD12D
:10750000BDE8F0812DE9F041C688043304460F46FA
:10751000B3FBF6F0154606FB103110B101382468B4
:10752000FCD1721AAA4228BF2A468DB14FF000083A
:107530002144AD1A043107EB0800904409F056F9D4
:10754000B5422A46246828BF32460021002DEFD1DB
:10755000BDE8F08132DF70473EDF7047244B1B7877
:1075600003B9704770B50123224C54E8002F194627
:1075700044E8001090F0000FF7D18AB91E4E1F4D5D
:1075800073682BB90DE01C4800F0F8F8736843B13C
:107590001B68287898470028F5D12060BFF35F8FDB
:1075A00070BDFBF721FCFBF7E9FA0028FBD12B7833
:1075B000023B012B0BD908F071FFA8B94FF08043B3
:1075C0000122C3F80025BFF34F8F20BFFDE7BFF3B3
:1075D0004F8F0B490B4BCA6802F4E0621343CB6038
:1075E000BFF34F8F00BFFDE7FFF7B4FFE6E700BF33
:1075F000542A0020782A00207C2A0020552A0020C6
:1076000000ED00E00400FA050D490E4A08B500231C
:107610000B701360BFF35F8F0B480C4900F0A4F8A8
:107620000B480C4A0121FCF73FFB00B108BD0246A4
:107630004FF400410848BDE80840FCF747BB00BFD5
:10764000542A0020782A00207C2A0020680F03009A
:10765000740F03005D750200582A002000B583B046
:1076600002A8002300F8013DFCF7FCFBF1EE103A04
:1076700023F09F03E1EE103ABFF35F8F0A4B4022E5
:10768000C3F884219DF80700FCF714FC08F006FFFE
:1076900028B920BF40BF20BF03B05DF804FBFFF74F
:1076A0005BFF03B05DF804FB00E100E070B501236F
:1076B000274C54E8001F1A4644E8002595F0000FB7
:1076C000F7D1C1B9042831D0224A1578A5B9224D85
:1076D00013702870214E73682BB911E01F4800F019
:1076E0004DF8736863B11B68287898470028F5D176
:1076F0002060BFF35F8F70BD2160BFF35F8F70BDEF
:10770000FBF772FBFBF73AFA0028FBD12B78023B20
:10771000012B0DD908F0C2FEB8B94FF08043012209
:10772000C3F80025BFF34F8F20BFFDE70A4DD1E717
:10773000BFF34F8F0A490B4BCA6802F4E062134350
:10774000CB60BFF34F8F00BFFDE7FFF703FFE4E718
:10775000782A0020542A0020552A00207C2A002064
:1077600000ED00E00400FA0501600B6843604A6820
:10777000934204BF00234360704700BF426842B198
:1077800001688B68134443604A68934204BF002336
:1077900043607047184A30B402F1F005AB1ADB10B1
:1077A00003EBD3735B1002EBC30152F83330984202
:1077B00028BF0C4605D311E052F8333098420CD262
:1077C00021468B1ADB1003EBD3735B10914202EB63
:1077D000C304F1D8094830BC70470D46984204D91B
:1077E00004F10802AA42D9D3F4E76068034B0028E9
:1077F00008BF1846EFE700BF8012030070130300B4
:1078000010B40023012401E0202B0AD004FA03F273
:10781000024299B203F10103F6D008465DF8044B29
:1078200070474FF6FF705DF8044B704790B189B117
:1078300030B40238002402E00134202C09D030F8A2
:10784000025F9542F8D133B10A680123A340134384
:107850000B6030BC70470B680122A24023EA020390
:107860000B6030BCF6E700BF70B49DF80C60B8B197
:10787000B1B1AAB10238002402E00134202C0FD0AB
:1078800030F8025F9D42F8D10120A04001EB820256
:1078900046B9C0430B68034041F8043B9142F9D11B
:1078A00070BC70470B68034341F8043B9142F7D02A
:1078B0000B68034341F8043B9142F3D1F0E700BF6A
:1078C00098B110B40238002302E00133202B0DD010
:1078D00030F8024F9442F8D1012202FA03F30B422E
:1078E00014BF104600205DF8044B70470020FAE7F3
:1078F000F0B491B100252B46012606FA03F4144298
:1079000005D000EB450431F81370A7800135013331
:10791000202BF2D10560F0BC70470D460560F0BC2D
:10792000704700BF00B1704710B5064CA3683BB16B
:107930001A68A2605B6800209847A368002BF7D103
:1079400010BD00BF842A002010B5012882B02AD0C3
:1079500023D303281FD10020072100F097F802A8A5
:107960000023264C00F8013DFCF77CFAE368013B5C
:10797000E360E3685BB9224B01221A604FF080425A
:10798000D2F81834C3F30043002BF9D1A3709DF84B
:107990000700FCF78FFA02B010BD1A4B0122C3F8A2
:1079A000802002B010BD02A80023144C00F8013D55
:1079B000FCF758FA237893B9124A6360A3602361F5
:1079C000E360106810F0010014D008F067FD20B9E2
:1079D0004FF080430122C3F8182501232370E36888
:1079E0009DF8070001330122E360A270FCF762FA00
:1079F00002B010BD072100F049F8E6E7842A002014
:107A00000C00004000E100E010B51D4B1A6882B088
:107A1000F2B91C4B1A680AB902B010BD00221A60F4
:107A20001B6801934FF080430222174C0199C3F861
:107A3000082323690122A270002BEDD01A6822616D
:107A40005B68012098472369002BF7D102B010BD75
:107A500000221A601B6800934FF0804301220A4CF9
:107A60000099C3F80823A3686270002BD1D01A686C
:107A7000A2605B6800209847A368002BF7D1C8E795
:107A80000001004004010040842A0020002810B4B6
:107A900018DB00F1604303F561434901C9B283F883
:107AA0000013C3B24009800000F1604000F561405E
:107AB00003F01F0201239340C0F8803103605DF89A
:107AC000044B7047C3B2044A03F00F044901224437
:107AD000C9B21176E6E700BFFCEC00E030B51F4C00
